:1000000045C0000060C000005EC000005CC0000091
:100010005AC0000058C0000056C0000054C0000084
:1000200052C0000093C000004EC000004CC0000051
:100030004AC0000048C0000046C0000044C00000A4
:1000400042C0000040C000003EC000003CC00000B4
:100050003AC0000038C0000036C0000034C00000C4
:1000600032C0000030C000002EC000002CC00000D4
:100070002AC0000028C0000026C0000024C00000E4
:1000800022C0000020C000001EC0000011241FBEBE
:10009000CFEFD0E1DEBFCDBF11E0A0E0B1E0E0E006
:1000A000F2E000E00BBF02C007900D92A230B10752
:1000B000D9F721E0A2E0B1E001C01D92A430B2075F
:1000C000E1F793D09BC09CCF20E030E008C0EFEC7C
:1000D000F7E03197F1F700C000002F5F3F4F28177E
:1000E0003907ACF3089585B3886085BB81E090E063
:1000F000EBDF85B3877F85BB81E090E0E5CF089596
:10010000CF93C82F85BB85B38B7F85BBECDFC295B2
:10011000C07FC5BB85B38B7F85BBE5DFCF910895DD
:1001200081E0EECF0895CF938FEF84BB15BAC8E27C
:10013000C5BBD9DFC5BBD7DF80E885BBD4DFF0DF27
:100140008FE0DEDF86E0DCDFCF9108951F920F9213
:100150000FB60F9211242F938F939F9380910201DA
:1001600090910301019690930301809302012091E5
:100170000001222361F08F30910549F410920001B3
:10018000109203011092020182B312BA0EC0211123
:100190000CC0499751F481E0809300011092030153
:1001A0001092020182B3806882BB9F918F912F9140
:1001B0000F900FBE0F901F9018958AEF83BD87B7E1
:1001C000806887BF78948CE085BD089520E030E09A
:1001D00008C0EFECF7E03197F1F700C000002F5FA7
:1001E0003F4F28173907ACF308959DDF81B380682E
:1001F00081BBE3DF84E690E0E9DFFCCFF894FFCF3A
:020200000100FB
:00000001FF
