:1000000045C000004BC0000049C0000047C00000D0
:1000100045C0000043C0000041C000003FC00000D8
:100020003DC000003BC0000039C0000037C00000E8
:1000300035C0000033C0000031C000002FC00000F8
:100040002DC000002BC0000029C0000027C0000008
:1000500025C0000023C0000021C000001FC0000018
:100060001DC000001BC0000019C0000017C0000028
:1000700015C0000013C0000011C000000FC0000038
:100080000DC000000BC0000009C0000011241FBEFD
:10009000CFEFD0E1DEBFCDBF43D0AAC0B1CF8699AC
:1000A00006C0859906C0849B06C082E0089580E062
:1000B000089581E0089583E00895823089F028F45E
:1000C000882341F0813049F00895833061F0843015
:1000D00069F0089580E885BB089580E485BB0895A4
:1000E00080E285BB089580E185BB089588E085BBEB
:1000F0000895823079F028F4882341F0813041F06E
:100100000895833049F0843049F0089515BA089570
:1001100015BA089515BA089515BA089515BA08952F
:100120008FEF81BBC0E0BBDF8330E9F3C23069F100
:1001300028F4CC2351F0C130C1F0F5CFC33009F41D
:100140003DC0C43009F44CC0EECF813031F48C2F67
:10015000D0DF81E0B2DFC1E0E6CF823021F78C2F23
:10016000C8DF82E0AADFC2E0DECF823031F48C2F1C
:10017000C0DF82E0A2DFC2E0D6CF8111D4CF8C2FC6
:10018000B8DF80E09ADFC0E0CECF823031F48C2F30
:10019000B0DF83E092DFC3E0C6CF811106C08C2FB1
:1001A000A8DF80E08ADFC0E0BECF813009F0BBCF9E
:1001B0008C2F9FDF81E081DFC1E0B5CF9FEF980FEB
:1001C000923030F48C2F95DF84E077DFC4E0ABCF42
:1001D0008111A9CF8C2F8DDF80E06FDFC0E0A3CF2E
:1001E0008111A1CF8C2F85DF80E067DFC0E09BCF3E
:0401F000F894FFCFB1
:00000001FF
