:1000000045C0000053C0000051C000004FC00000B8
:100010004DC000004BC0000049C0000047C00000B8
:1000200045C0000043C0000041C000003FC00000C8
:100030006AC000003BC0000039C0000037C00000AB
:1000400035C0000033C0000031C000002FC00000E8
:100050002DC000002BC0000029C0000027C00000F8
:1000600025C0000023C0000021C000001FC0000008
:100070001DC000001BC0000019C0000017C0000018
:1000800015C0000013C0000011C0000011241FBEE5
:10009000CFEFD0E1DEBFCDBF21E0A0E0B1E001C0F5
:1000A0001D92A430B207E1F711D0BDC0A9CF20E066
:1000B00030E008C0EFECF7E03197F1F700C0000046
:1000C0002F5F3F4F28173907ACF308956ED088EEA5
:1000D00093E0EDDF8091020190910301843B910553
:1000E00029F4109203011092020106C084EB90E003
:1000F000909303018093020188E893E1D8DFEACF6F
:100100009BBD8ABD08951F920F920FB60F921124C6
:100110000BB60F922F933F934F935F936F937F9301
:100120008F939F93AF93BF93EF93FF9380910201BF
:100130009091030164EB70E04FD08AEC98E0689FE7
:100140009001699F300D789F300D112426503F4F4C
:1001500080910001909101018217930734F4019678
:10016000909301018093000108C0281739072CF4EF
:10017000019790930101809300018091000190917B
:100180000101BEDFFF91EF91BF91AF919F918F91E0
:100190007F916F915F914F913F912F910F900BBE87
:1001A0000F900FBE0F901F9018958FEF87BB8AEFAF
:1001B00090E09BBD8ABD109203011092020187B7A7
:1001C000806187BF789480E197E297BD86BD82E821
:1001D0008FBD82E18EBD089597FB072E16F4009423
:1001E00006D077FD08D00BD007FC05D03EF49095E3
:1001F00081959F4F0895709561957F4F0895AA1B33
:10020000BB1B51E107C0AA1FBB1FA617B70710F001
:10021000A61BB70B881F991F5A95A9F78095909533
:0A022000BC01CD010895F894FFCF52
:00000001FF
