:1000000045C0000053C0000051C000004FC00000B8
:100010004DC000004BC0000049C0000047C00000B8
:1000200045C0000043C0000041C000003FC00000C8
:1000300056C000003BC0000039C0000037C00000BF
:1000400035C0000033C0000031C000002FC00000E8
:100050002DC000002BC0000029C0000027C00000F8
:1000600025C0000023C0000021C000001FC0000008
:100070001DC000001BC0000019C0000017C0000018
:1000800015C0000013C0000011C0000011241FBEE5
:10009000CFEFD0E1DEBFCDBF21E0A0E0B1E001C0F5
:1000A0001D92A230B207E1F754D077C0A9CF8AEFF2
:1000B00090E09BBD8ABD909301018093000187B7BA
:1000C000806187BF789480E197E297BD86BD82E822
:1000D0008FBD82E18EBD08959BBD8ABD08951F929C
:1000E0000F920FB60F9211240BB60F922F933F93DE
:1000F0004F935F936F937F938F939F93AF93BF9330
:10010000EF93FF938091000190910101E5DFFF9152
:10011000EF91BF91AF919F918F917F916F915F917F
:100120004F913F912F910F900BBE0F900FBE0F90EC
:100130001F90189520E030E008C0EFECF7E0319711
:10014000F1F700C000002F5F3F4F28173907ACF3CD
:1001500008958FEF87BBABDF88EE93E0EBDFCAEF4C
:10016000D0E008C0D0930101C093000181E090E08D
:10017000E1DF2196C43C89E0D807A4F3C4ECD9E0C0
:1001800008C0D0930101C093000181E090E0D2DF6C
:0E0190002197CB3FD105ACF7E2CFF894FFCF1B
:00000001FF
