:1000000045C000004BC0000049C0000047C00000D0
:1000100045C0000043C0000041C000003FC00000D8
:100020003DC000003BC0000039C0000037C00000E8
:1000300035C0000033C0000031C000002FC00000F8
:100040002DC000002BC0000029C0000027C0000008
:1000500025C0000023C0000021C000001FC0000018
:100060001DC000001BC0000019C0000017C0000028
:1000700015C0000013C0000011C000000FC0000038
:100080000DC000000BC0000009C0000011241FBEFD
:10009000CFEFD0E1DEBFCDBF21D03AC0B1CF8AEFE4
:1000A00090E09BBD8ABD80E197E297BD86BD82E866
:1000B0008FBD82E18EBD08959BBD8ABD089520E06D
:1000C00030E008C0EFECF7E03197F1F700C0000036
:1000D0002F5F3F4F28173907ACF30895CF93DF9375
:1000E0008FEF87BBDCDF88EE93E0E9DFCAEFD0E07B
:1000F00006C0CE01E1DF81E090E0E1DF2196C43C63
:1001000089E0D807B4F380E090E0DF91CF910895C3
:04011000F894FFCF91
:00000001FF
