S014000045696E646F706472616368742E737265633B
S113000045C0000053C0000051C000004FC00000B4
S11300104DC000004BC0000049C0000047C00000B4
S113002045C0000043C0000041C000003FC00000C4
S11300306DC00000EAC0000039C0000037C00000F5
S113004035C0000033C0000031C000002FC00000E4
S11300502DC000002BC0000029C0000027C00000F4
S113006025C0000023C0000021C000001FC0000004
S11300701DC000001BC0000019C0000017C0000014
S113008015C0000013C0000011C0000011241FBEE1
S1130090CFEFD0E1DEBFCDBF21E0A0E0B1E001C0F1
S11300A01D92AC30B207E1F711D093C2A9CF20E082
S11300B030E008C0EFECF7E03197F1F700C0000042
S11300C02F5F3F4F28173907ACF308958FEF87BB95
S11300D01BD18CED95E09093090180930801CAEF40
S11300E0D0E0D0930B01C0930A0180E197E2DFDFF7
S11300F0D0930901C093080184EC99E090930B011B
S113010080930A0180E197E2D2DFE3CF1F920F923E
S11301100FB60F9211240BB60F928F929F92AF924B
S1130120BF92CF92DF92EF92FF922F933F934F9320
S11301305F936F937F938F939F93AF93BF93EF934B
S1130140FF936091080170910901072E000C880B40
S1130150990B8BD14B015C01C0900401D090050137
S1130160E0900601F0900701A70196012ED218161F
S113017084F420E030E040E85FE3C701B601DFD05B
S11301806093040170930501809306019093070125
S113019016C0A7019601C501B40135D188237CF4AA
S11301A020E030E040E85FE3C701B601C7D06093C8
S11301B004017093050180930601909307016091F7
S11301C004017091050180910601909107011FD1EE
S11301D07BBD6ABDFF91EF91BF91AF919F918F91CC
S11301E07F916F915F914F913F912F91FF90EF908D
S11301F0DF90CF90BF90AF909F908F900F900BBEE9
S11302000F900FBE0F901F9018951F920F920FB66C
S11302100F9211240BB60F928F929F92AF92BF92BE
S1130220CF92DF92EF92FF922F933F934F935F937E
S11302306F937F938F939F93AF93BF93EF93FF93AA
S113024060910A0170910B01072E000C880B990B29
S11302500CD14B015C01C0900001D0900101E090F1
S11302600201F0900301A7019601AFD1181684F49E
S113027020E030E040E85FE3C701B60160D060935E
S1130280000170930101809302019093030116C051
S1130290A7019601C501B401B6D088237CF420E0FF
S11302A030E040E85FE3C701B60148D06093000145
S11302B07093010180930201909303016091000106
S11302C0709101018091020190910301A0D079BD48
S11302D068BDFF91EF91BF91AF919F918F917F91F5
S11302E06F915F914F913F912F91FF90EF90DF902D
S11302F0CF90BF90AF909F908F900F900BBE0F90B8
S11303000FBE0F901F9018958AEF90E09BBD8ABD99
S113031099BD88BD10920B0110920A0187B78860BD
S113032087BF87B7806187BF789480E197E297BDE4
S113033086BD82EA8FBD82E18EBD08955058BB27E9
S1130340AA270ED008C1F9D030F0FED020F031F445
S11303509F3F11F41EF4EEC00EF4E095E7FBE4C0F9
S1130360E92F0AD180F3BA17620773078407950748
S113037018F071F49EF522C10EF4E0950B2EBA2FFD
S1130380A02D0B01B90190010C01CA01A001112497
S1130390FF27591B99F0593F50F4503E68F11A1643
S11303A0F040A22F232F342F4427585FF3CF4695D4
S11303B037952795A795F0405395C9F77EF41F16F6
S11303C0BA0B620B730B840BBAF09150A1F0FF0FC0
S11303D0BB1F661F771F881FC2F70EC0BA0F621FAC
S11303E0731F841F48F4879577956795B795F7959C
S11303F09E3F08F0B3CF9395880F08F09927EE0F2E
S11304009795879508956CD008F481E00895BCD041
S113041088F09F5790F0B92F9927B751A0F0D1F0E9
S1130420660F771F881F991F1AF0BA95C9F712C073
S1130430B13081F0C3D0B1E00895C0C0672F782FE8
S11304408827B85F39F0B93FCCF3869577956795DF
S1130450B395D9F73EF490958095709561957F4F4B
S11304608F4F9F4F0895E89409C097FB3EF49095F1
S11304708095709561957F4F8F4F9F4F9923A9F079
S1130480F92F96E9BB279395F69587957795679508
S1130490B795F111F8CFFAF4BB0F11F460FF1BC04C
S11304A06F5F7F4F8F4F9F4F16C0882311F096E9DF
S11304B011C0772321F09EE8872F762F05C066238D
S11304C071F096E8862F70E060E02AF09A95660F46
S11304D0771F881FDAF7880F9695879597F90895FF
S11304E0990F0008550FAA0BE0E8FEEF1616170641
S11304F0E807F907C0F012161306E407F50798F0A9
S1130500621B730B840B950B39F40A2661F0232BC1
S1130510242B252B21F408950A2609F4A140A6953D
S11305208FEF811D811D089597F99F6780E870E022
S113053060E008959FEF80EC089500240A94161655
S1130540170618060906089500240A9412161306BD
S1130550140605060895092E0394000C11F488234B
S113056052F0BB0F40F4BF2B11F460FF04C06F5F67
S11305707F4F8F4F9F4F089557FD9058440F551F3D
S113058059F05F3F71F04795880F97FB991F61F011
S11305909F3F79F087950895121613061406551F88
S11305A0F2CF4695F1DF08C0161617061806991FF4
S11305B0F1CF86957105610508940895E894BB27E9
S11305C066277727CB0197F908958ADF08F48FEF20
S10905D00895F894FFCF2A
S9030000FC
