:1000000045C0000058C0000056C0000054C00000A9
:1000100052C0000050C000004EC000004CC00000A4
:100020004AC0000048C0000046C0000044C00000B4
:1000300042C0000040C000003EC000003CC00000C4
:100040003AC0000038C0000036C0000034C00000D4
:1000500032C0000030C000002EC000002CC00000E4
:100060002AC0000028C0000026C0000024C00000F4
:1000700022C0000020C000001EC000001CC0000004
:100080001AC0000018C0000016C0000011241FBED6
:10009000CFEFD0E1DEBFCDBF11E0A0E0B1E0E4E9F9
:1000A000F1E000E00BBF02C007900D92A430B10751
:1000B000D9F763D06DC0A4CF20E030E008C0EFECEA
:1000C000F7E03197F1F700C000002F5F3F4F28178E
:1000D0003907ACF3089585B3886085BB81E090E073
:1000E000EBDF85B3877F85BB81E090E0E5CF0895A6
:1000F000CF93C82F85BB85B38B7F85BBECDFC295C3
:10010000C07FC5BB85B38B7F85BBE5DFCF910895ED
:1001100081E0EECF08958058EBCF0895CF938FEF15
:1001200084BB15BAC8E2C5BBD6DFC5BBD4DF80E847
:1001300085BBD1DFEDDF8FE0DBDF86E0D9DFCF915C
:100140000895CF93C82F85BB85B3846085BBC3DF7B
:10015000C295C07FC5BB85B3846085BBBCDFCF9132
:100160000895CF93DF93EC0102C0EBDF21968881E5
:100170008111FBCFDF91CF910895D0DF80E090E037
:10018000CADF80E091E0EDDF8AE090E095DFFCCF10
:04019000F894FFCF11
:040194006865790021
:00000001FF
