S00D00005765656B322E7372656359
S113000045C0000053C00000B0C0000080C0000024
S11300104DC000004BC0000049C0000047C00000B4
S113002045C0000043C0000041C000003FC00000C4
S11300303DC000003BC0000039C0000037C00000D4
S113004035C0000033C0000031C000002FC00000E4
S11300502DC000002BC0000029C0000027C00000F4
S113006025C0000023C0000021C000001FC0000004
S11300701DC000001BC0000019C0000017C0000014
S113008015C0000013C0000011C0000011241FBEE1
S1130090CFEFD0E1DEBFCDBF21E0A0E0B1E001C0F1
S11300A01D92A230B207E1F702D086C0A9CF81E049
S11300B080930001809301018FEF87BB11BA89B748
S11300C0866089BFEAE6F0E080818C63808378945F
S11300D0FFCF80910101882369F080910001880F8E
S11300E08093000188BB80910001803879F41092DC
S11300F0010108958091000186958093000188BBD9
S113010080910001813011F48093010108951F92C0
S11301100F920FB60F9211240BB60F922F933F93A9
S11301204F935F936F937F938F939F93AF93BF93FB
S1130130EF93FF93CEDFFF91EF91BF91AF919F912A
S11301408F917F916F915F914F913F912F910F907C
S11301500BBE0F900FBE0F901F90189581E08093F7
S1130160000188BB8093010108951F920F920FB67E
S11301700F9211240BB60F922F933F934F935F93DB
S11301806F937F938F939F93AF93BF93EF93FF935B
S1130190E5DFFF91EF91BF91AF919F918F917F9197
S11301A06F915F914F913F912F910F900BBE0F90E4
S10F01B00FBE0F901F901895F894FFCF1D
S9030000FC
